use cardware_evm::Wallet;

#[tokio::main]
async fn main() {
    println!("Hello, world!");
    let mut wal = Wallet::new("zpub6qhLodRvBBKKmnMHWf3SUgucomzpcR8mRRw9V8sW9sEiLbVDwwN4N5y5tfojPWhKkuxyTtCsuv4W45q9MuxB95iFBVD2mXEyHrkmka1Woxq".to_string(),
                              "m/0/0".to_string(),
                              "https://mainnet.infura.io/v3/498507efe2844f7cb9d8f25dd6e8f92b".to_string(),1);
    println!("Address: {:?}",wal.address());
    let res = wal.sync().await;
    println!("Res? {:?}",res);
    println!("Eth balance: {:?}",wal.balance());
    let res = wal.send_eip1559("0x02A8665a18BBa2D1B4766e2D71977A781b97592e".to_string(),"544000000000",1);
    println!("RES: {:?}",res);

    //estimate fee example:
    let fee_est = wal.estimate_fee(1,21000);
    println!("fee est: {:?}",fee_est);
    let fee_est = wal.estimate_fee(1,160000);
    println!("fee est erc20: {:?}",fee_est);


    let broadcast_result = wal.broadcast_eip1559("ec01088427a87b4c8427a87b4c8252089402a8665a18bba2d1b4766e2d71977a781b97592e857ea8ed400080c0".to_string(),
                                                  "L7njNYeLFGE1bwVkPdOEpVLGM7RYl41FOuKsZsruIJkzp/JuJ4I+OBweMcUAwnV8sL3hBLQlSpKFIhg1A06Eqxs=".to_string()).await;

    println!("b result {:?}",broadcast_result);

    let permit_res = wal.prepare_permit2("0x3593564c000000000000000000000000000000000000000000000000000000000000006000000000000000000000000000000000000000000000000000000000000000a000000000000000000000000000000000000000000000000000000000681249980000000000000000000000000000000000000000000000000000000000000003100604000000000000000000000000000000000000000000000000000000000000000000000000000000000000000000000000000000000000000000000000030000000000000000000000000000000000000000000000000000000000000060000000000000000000000000000000000000000000000000000000000000044000000000000000000000000000000000000000000000000000000000000004c000000000000000000000000000000000000000000000000000000000000003c0000000000000000000000000000000000000000000000000000000000000004000000000000000000000000000000000000000000000000000000000000000800000000000000000000000000000000000000000000000000000000000000003070b0e000000000000000000000000000000000000000000000000000000000000000000000000000000000000000000000000000000000000000000000000030000000000000000000000000000000000000000000000000000000000000060000000000000000000000000000000000000000000000000000000000000022000000000000000000000000000000000000000000000000000000000000002a000000000000000000000000000000000000000000000000000000000000001a0000000000000000000000000000000000000000000000000000000000000002000000000000000000000000000000000000000000000000000000000000000000000000000000000000000000000000000000000000000000000000000000080000000000000000000000000000000000000000000000000000e35fa931a0000000000000000000000000000000000000000000000000000000000000000000000000000000000000000000000000000000000000000000000000000000000010000000000000000000000000000000000000000000000000000000000000020000000000000000000000000a0b86991c6218b36c1d19d4a2e9eb0ce3606eb4800000000000000000000000000000000000000000000000000000000000001f4000000000000000000000000000000000000000000000000000000000000000a000000000000000000000000000000000000000000000000000000000000000000000000000000000000000000000000000000000000000000000000000000a0000000000000000000000000000000000000000000000000000000000000000000000000000000000000000000000000000000000000000000000000000000600000000000000000000000000000000000000000000000000000000000000000000000000000000000000000000000000000000000000000000000000000000000000000000000000000000000000000000000000000000000000000000000010000000000000000000000000000000000000000000000000000000000000060000000000000000000000000a0b86991c6218b36c1d19d4a2e9eb0ce3606eb48000000000000000000000000000000000000000000000000000000000000000200000000000000000000000000000000000000000000000000000000000000000000000000000000000000000000000000000000000000000000000000000060000000000000000000000000a0b86991c6218b36c1d19d4a2e9eb0ce3606eb4800000000000000000000000027213e28d7fda5c57fe9e5dd923818dbccf71c4700000000000000000000000000000000000000000000000000000000000000190000000000000000000000000000000000000000000000000000000000000060000000000000000000000000a0b86991c6218b36c1d19d4a2e9eb0ce3606eb48000000000000000000000000f42b8303453e88c97bf31fb421ae03242fc7933400000000000000000000000000000000000000000000000000000000005d4aed0c".to_string());
    println!("{:?}",permit_res);
    //Erc20 Balance
    /*
    let erc_bal = wal.erc20_balance(["0xdAC17F958D2ee523a2206206994597C13D831ec7".to_string(),
                                      "0xA0b86991c6218b36c1d19D4a2e9Eb0cE3606eB48".to_string()].to_vec()).await;
    println!("erc20 bal: {:?}",erc_bal);

    //Broadcast example
    //let res3 = wal.broadcast("ea80850cce4166008252089402a8665a18bba2d1b4766e2d71977a781b97592e857ea8ed40008081928080".to_string(),
    //                          "swUgntcRQS9BzpOfHNB9sZUbK5rwE0M9hvBAfSBohJlN6Xs2ijDS+UVz9U8/QRkYNN+yVp3y2ptBxFkaulVt8Rw=".to_string()).await; 
    //println!("res3: {:?}",res3); 

    let erc_20_send = wal.erc20_transfer("0xA0b86991c6218b36c1d19D4a2e9Eb0cE3606eB48".to_string(),
                                       "0x02A8665a18BBa2D1B4766e2D71977A781b97592e".to_string(),
                                       "1000000",2);

    println!("erc 20 send: {:?}",erc_20_send);

    //let res3 = wal.broadcast("f869078447596cda8302710094a0b86991c6218b36c1d19d4a2e9eb0ce3606eb4880b844a9059cbb00000000000000000000000002a8665a18bba2d1b4766e2d71977a781b97592e00000000000000000000000000000000000000000000000000000000000f4240018080".to_string(),
    //                          "XQdtleo1VPCj0YGpghoStvRZB2heI+4/c5X5PdN2T9tAQSsZSa1ssE0iEDW+KK1KQrEx2ko9Mv98QOae8c/UHRw=".to_string()).await; 
    //println!("res3: {:?}",res3); 
    //let con_data = wal.validate_contract("0xA0b86991c6218b36c1d19D4a2e9Eb0cE3606eB48".to_string()).await;
    //println!("contract data {}: ",con_data);
    println!("nonce: {:?}",wal.get_nonce());
    println!("chain_id: {:?}",wal.get_chain_id());
    println!("hex to b64: {:?}",wal.hex_to_b64("0xA0b86991c6218b36c1d19D4a2e9Eb0cE3606eB48".to_string()));
    let res3 = wal.construct_signed_tx("0x02f8700108847735940085017e73c1dc82fe7b94a0b86991c6218b36c1d19d4a2e9eb0ce3606eb4880b844095ea7b3000000000000000000000000000000000022d473030f116ddee9f6b43ac78ba3ffffffffffffffffffffffffffffffffffffffffffffffffffffffffffffffffc0808080".to_string(),
                                      "148v8u32WP1MW3JOk/Iz1OOKMZ8jLO4An1jcfGzx7AksGQtP+dm8lw6Zri94txhV+gQEeMrnvleImffPG1wQkRs=".to_string());
    println!("reso {:?}",res3);
    */
}
